ITP001602780324101719300398765432109876998887776666555555555512121212TRANSMISSOR              RECEPTOR                          
PE1VNH2410     241007         0000002715918                                                     0202577     PORTCONTATO    PPC0R
PE2240621001000853    000000000000027000000000000000000000000000000000000000000000000000000       0715  1             E         
PE324101700000000000241007000000000002410080000000000024100900000000000241010000000000002410110000000000024101200000000000      
PE324101300000000000241014000000000002410150000000000024101600000000000241017000000000002410180000000000024101900000000000      
PE324102000000000000241021000000000002410220000000000024102300000000000241024000000000002410250000000000024102600000000000      
PE324102700000000000241028000000000002410290000000000024103000000000000241031000000000002411010000000000024110200000000000      
PE324110300000000000241104000000000002411050000000000024110600000000000241107000000000002411080000000000024110900000000000      
PE324111000000000000241111000000000002411120000000000024111300000000000241114000000000002411150000000000024111600000000000      
PE324111700000000000241118000000000002411190000000000024112000000000000241121000000000002411220000000000024112300000000000      
PE324112400000000000241125000000000002411260000000000024112700000000000241128000000000002411290000000000024113000000000000      
PE324120100000000000241202000000000002412030000000000024120400000000000241205000000000002412060000000000024120700000000000      
PE324120800000000000241209000000000002412100000000000024121100000000000241212000000000002412130000000000024121400000000000      
PE324121500000000000241216000000000002412170000000000024121800000000000241219000000000002412200000000000024122100000000000      
PE324122200000000000241223000000000002412240000000000024122500000000000241226000000000002412270000000000024122800000000000      
PE324122900000000000241230000000000002412310000000000025010100000000000250102000000000002501030000000000025010400000000000      
PE325010500000000000250106000000000002501070000000000025010800000000000250109000000000002501100000000000025011100000000000      
PE325011200000000000250113000000000002501140000000000025011500000000000250116000000000002501170000000000025011800000000000      
PE325011900000000000250120000000000272501210000000000025012200000000000250123000000000002501240000000000025012500000000000      
PE325012600000000000250127000000000002501280000000000025012900000000000250130000000000002501310000000000025020100000000000      
PE325020200000000000250203000000000002502040000000000025020500000000000250206000000000002502070000000000025020800000000000      
PE325020900000000000250210000000000002502110000000000025021200000000000250213000000000002502140000000000025021500000000000      
PE325021600000000000250217000000000272502180000000000025021900000000000250220000000000002502210000000000025022200000000000      
PE325022300000000000250224000000000002502250000000000025022600000000000250227000000000002502280000000000025030100000000000      
PE325030200000000000250303000000000002503040000000000025030500000000000250306000000000002503070000000000025030800000000000      
PE325030900000000000250310000000000002503110000000000025031200000000000250313000000000002503140000000000025031500000000000      
PE325031600000000000250317000000000002503180000000000025031900000000000250320000000000002503210000000000025032200000000000      
FTP2780300000002800000000000000000                                                                                              
