ITP00160000002410180128015910442201038460476884000268        AJL1    VOLKSWAGEN DO BRASIL LTDA                      AJL1        
PE1057000000166241018         000000    2QB   201797A                                           23043977    57   GEINALDO DUPC0P
PE22410160004586741   241016000000200000000000383300000000003849000000000000000011 00000000REC.MO 0000S                         
PE344444400000000040241018000000001202410210000000012024102200000000120241025000000001602410280000000016024102900000000080      
PE324103000000000120241031000000001202411010000000008024110400000000120241105000000000802411060000000008024110700000000080      
PE324110800000000040241111000000000402411120000000004024111300000000040241118000000000402411190000000000300000000000000000      
PE4                                                            000000000000                              000000000000           
FTP00000000000008                                                                                                               
